{
  "contractName": "ticketingSystem",
  "abi": [
    {
      "anonymous": false,
      "inputs": [
        {
          "indexed": false,
          "internalType": "uint256",
          "name": "",
          "type": "uint256"
        }
      ],
      "name": "artistModified",
      "type": "event"
    },
    {
      "anonymous": false,
      "inputs": [
        {
          "indexed": false,
          "internalType": "uint256",
          "name": "",
          "type": "uint256"
        }
      ],
      "name": "buyTicketSucceed",
      "type": "event"
    },
    {
      "anonymous": false,
      "inputs": [
        {
          "indexed": false,
          "internalType": "uint256",
          "name": "",
          "type": "uint256"
        }
      ],
      "name": "concertCashOut",
      "type": "event"
    },
    {
      "anonymous": false,
      "inputs": [
        {
          "indexed": false,
          "internalType": "uint256",
          "name": "",
          "type": "uint256"
        }
      ],
      "name": "concertCreated",
      "type": "event"
    },
    {
      "anonymous": false,
      "inputs": [
        {
          "indexed": false,
          "internalType": "uint256",
          "name": "",
          "type": "uint256"
        }
      ],
      "name": "concertValidatedByArtist",
      "type": "event"
    },
    {
      "anonymous": false,
      "inputs": [
        {
          "indexed": false,
          "internalType": "uint256",
          "name": "",
          "type": "uint256"
        }
      ],
      "name": "concertValidatedByVenue",
      "type": "event"
    },
    {
      "anonymous": false,
      "inputs": [
        {
          "indexed": false,
          "internalType": "uint256",
          "name": "",
          "type": "uint256"
        }
      ],
      "name": "newArtistCreated",
      "type": "event"
    },
    {
      "anonymous": false,
      "inputs": [
        {
          "indexed": false,
          "internalType": "uint256",
          "name": "",
          "type": "uint256"
        }
      ],
      "name": "newTicketEmitted",
      "type": "event"
    },
    {
      "anonymous": false,
      "inputs": [
        {
          "indexed": false,
          "internalType": "uint256",
          "name": "",
          "type": "uint256"
        },
        {
          "indexed": false,
          "internalType": "address",
          "name": "",
          "type": "address"
        }
      ],
      "name": "ticketBoughtSecondHand",
      "type": "event"
    },
    {
      "anonymous": false,
      "inputs": [
        {
          "indexed": false,
          "internalType": "uint256",
          "name": "",
          "type": "uint256"
        }
      ],
      "name": "ticketOfferedForSale",
      "type": "event"
    },
    {
      "anonymous": false,
      "inputs": [
        {
          "indexed": false,
          "internalType": "uint256",
          "name": "",
          "type": "uint256"
        },
        {
          "indexed": false,
          "internalType": "address",
          "name": "",
          "type": "address"
        }
      ],
      "name": "ticketTransfered",
      "type": "event"
    },
    {
      "anonymous": false,
      "inputs": [
        {
          "indexed": false,
          "internalType": "uint256",
          "name": "",
          "type": "uint256"
        }
      ],
      "name": "ticketUsed",
      "type": "event"
    },
    {
      "anonymous": false,
      "inputs": [
        {
          "indexed": false,
          "internalType": "uint256",
          "name": "",
          "type": "uint256"
        }
      ],
      "name": "venueCreated",
      "type": "event"
    },
    {
      "anonymous": false,
      "inputs": [
        {
          "indexed": false,
          "internalType": "uint256",
          "name": "",
          "type": "uint256"
        }
      ],
      "name": "venueModified",
      "type": "event"
    },
    {
      "inputs": [
        {
          "internalType": "uint256",
          "name": "",
          "type": "uint256"
        }
      ],
      "name": "artistsRegister",
      "outputs": [
        {
          "internalType": "uint256",
          "name": "id",
          "type": "uint256"
        },
        {
          "internalType": "bytes32",
          "name": "name",
          "type": "bytes32"
        },
        {
          "internalType": "uint256",
          "name": "artistCategory",
          "type": "uint256"
        },
        {
          "internalType": "uint256",
          "name": "totalTicketSold",
          "type": "uint256"
        },
        {
          "internalType": "address",
          "name": "owner",
          "type": "address"
        }
      ],
      "stateMutability": "view",
      "type": "function",
      "constant": true
    },
    {
      "inputs": [
        {
          "internalType": "uint256",
          "name": "",
          "type": "uint256"
        }
      ],
      "name": "concertsRegister",
      "outputs": [
        {
          "internalType": "uint256",
          "name": "concertId",
          "type": "uint256"
        },
        {
          "internalType": "uint256",
          "name": "artistId",
          "type": "uint256"
        },
        {
          "internalType": "uint256",
          "name": "venueId",
          "type": "uint256"
        },
        {
          "internalType": "uint256",
          "name": "concertDate",
          "type": "uint256"
        },
        {
          "internalType": "uint256",
          "name": "ticketPrice",
          "type": "uint256"
        },
        {
          "internalType": "bool",
          "name": "validatedByArtist",
          "type": "bool"
        },
        {
          "internalType": "bool",
          "name": "validatedByVenue",
          "type": "bool"
        },
        {
          "internalType": "uint256",
          "name": "totalSoldTicket",
          "type": "uint256"
        },
        {
          "internalType": "uint256",
          "name": "totalMoneyCollected",
          "type": "uint256"
        }
      ],
      "stateMutability": "view",
      "type": "function",
      "constant": true
    },
    {
      "inputs": [
        {
          "internalType": "uint256",
          "name": "",
          "type": "uint256"
        }
      ],
      "name": "ticketsRegister",
      "outputs": [
        {
          "internalType": "uint256",
          "name": "ticketId",
          "type": "uint256"
        },
        {
          "internalType": "uint256",
          "name": "concertId",
          "type": "uint256"
        },
        {
          "internalType": "address",
          "name": "owner",
          "type": "address"
        },
        {
          "internalType": "uint256",
          "name": "amountPaid",
          "type": "uint256"
        },
        {
          "internalType": "bool",
          "name": "isAvailable",
          "type": "bool"
        },
        {
          "internalType": "bool",
          "name": "isAvailableForSale",
          "type": "bool"
        }
      ],
      "stateMutability": "view",
      "type": "function",
      "constant": true
    },
    {
      "inputs": [],
      "name": "totalOfArtists",
      "outputs": [
        {
          "internalType": "uint256",
          "name": "",
          "type": "uint256"
        }
      ],
      "stateMutability": "view",
      "type": "function",
      "constant": true
    },
    {
      "inputs": [],
      "name": "totalOfConcerts",
      "outputs": [
        {
          "internalType": "uint256",
          "name": "",
          "type": "uint256"
        }
      ],
      "stateMutability": "view",
      "type": "function",
      "constant": true
    },
    {
      "inputs": [],
      "name": "totalOfVenues",
      "outputs": [
        {
          "internalType": "uint256",
          "name": "",
          "type": "uint256"
        }
      ],
      "stateMutability": "view",
      "type": "function",
      "constant": true
    },
    {
      "inputs": [],
      "name": "totalTicket",
      "outputs": [
        {
          "internalType": "uint256",
          "name": "",
          "type": "uint256"
        }
      ],
      "stateMutability": "view",
      "type": "function",
      "constant": true
    },
    {
      "inputs": [
        {
          "internalType": "uint256",
          "name": "",
          "type": "uint256"
        }
      ],
      "name": "venuesRegister",
      "outputs": [
        {
          "internalType": "uint256",
          "name": "id",
          "type": "uint256"
        },
        {
          "internalType": "bytes32",
          "name": "name",
          "type": "bytes32"
        },
        {
          "internalType": "uint256",
          "name": "capacity",
          "type": "uint256"
        },
        {
          "internalType": "uint256",
          "name": "standardComission",
          "type": "uint256"
        },
        {
          "internalType": "address payable",
          "name": "owner",
          "type": "address"
        }
      ],
      "stateMutability": "view",
      "type": "function",
      "constant": true
    },
    {
      "inputs": [
        {
          "internalType": "bytes32",
          "name": "_name",
          "type": "bytes32"
        },
        {
          "internalType": "uint256",
          "name": "_categroy",
          "type": "uint256"
        }
      ],
      "name": "createArtist",
      "outputs": [],
      "stateMutability": "nonpayable",
      "type": "function"
    },
    {
      "inputs": [
        {
          "internalType": "uint256",
          "name": "_id",
          "type": "uint256"
        },
        {
          "internalType": "bytes32",
          "name": "_name",
          "type": "bytes32"
        },
        {
          "internalType": "uint256",
          "name": "_categroy",
          "type": "uint256"
        },
        {
          "internalType": "address payable",
          "name": "_address",
          "type": "address"
        }
      ],
      "name": "modifyArtist",
      "outputs": [],
      "stateMutability": "nonpayable",
      "type": "function"
    },
    {
      "inputs": [
        {
          "internalType": "bytes32",
          "name": "_name",
          "type": "bytes32"
        },
        {
          "internalType": "uint256",
          "name": "_capacity",
          "type": "uint256"
        },
        {
          "internalType": "uint256",
          "name": "_standardComission",
          "type": "uint256"
        }
      ],
      "name": "createVenue",
      "outputs": [],
      "stateMutability": "nonpayable",
      "type": "function"
    },
    {
      "inputs": [
        {
          "internalType": "uint256",
          "name": "_venueId",
          "type": "uint256"
        },
        {
          "internalType": "bytes32",
          "name": "_name",
          "type": "bytes32"
        },
        {
          "internalType": "uint256",
          "name": "_capacity",
          "type": "uint256"
        },
        {
          "internalType": "uint256",
          "name": "_standardComission",
          "type": "uint256"
        },
        {
          "internalType": "address payable",
          "name": "_newOwner",
          "type": "address"
        }
      ],
      "name": "modifyVenue",
      "outputs": [],
      "stateMutability": "nonpayable",
      "type": "function"
    },
    {
      "inputs": [
        {
          "internalType": "uint256",
          "name": "_artistId",
          "type": "uint256"
        },
        {
          "internalType": "uint256",
          "name": "_venueId",
          "type": "uint256"
        },
        {
          "internalType": "uint256",
          "name": "_concertDate",
          "type": "uint256"
        },
        {
          "internalType": "uint256",
          "name": "_ticketPrice",
          "type": "uint256"
        }
      ],
      "name": "createConcert",
      "outputs": [],
      "stateMutability": "nonpayable",
      "type": "function"
    },
    {
      "inputs": [
        {
          "internalType": "uint256",
          "name": "_concertId",
          "type": "uint256"
        }
      ],
      "name": "validateConcert",
      "outputs": [],
      "stateMutability": "nonpayable",
      "type": "function"
    },
    {
      "inputs": [
        {
          "internalType": "uint256",
          "name": "_concertId",
          "type": "uint256"
        },
        {
          "internalType": "address payable",
          "name": "_ticketOwner",
          "type": "address"
        }
      ],
      "name": "emitTicket",
      "outputs": [],
      "stateMutability": "nonpayable",
      "type": "function"
    },
    {
      "inputs": [
        {
          "internalType": "uint256",
          "name": "_ticketId",
          "type": "uint256"
        }
      ],
      "name": "useTicket",
      "outputs": [],
      "stateMutability": "nonpayable",
      "type": "function"
    },
    {
      "inputs": [
        {
          "internalType": "uint256",
          "name": "_concertId",
          "type": "uint256"
        }
      ],
      "name": "buyTicket",
      "outputs": [],
      "stateMutability": "payable",
      "type": "function",
      "payable": true
    },
    {
      "inputs": [
        {
          "internalType": "uint256",
          "name": "_ticketId",
          "type": "uint256"
        },
        {
          "internalType": "address payable",
          "name": "_newOwner",
          "type": "address"
        }
      ],
      "name": "transferTicket",
      "outputs": [],
      "stateMutability": "nonpayable",
      "type": "function"
    },
    {
      "inputs": [
        {
          "internalType": "uint256",
          "name": "_concertId",
          "type": "uint256"
        },
        {
          "internalType": "address payable",
          "name": "_cashOutAddress",
          "type": "address"
        }
      ],
      "name": "cashOutConcert",
      "outputs": [],
      "stateMutability": "nonpayable",
      "type": "function"
    },
    {
      "inputs": [
        {
          "internalType": "uint256",
          "name": "_ticketId",
          "type": "uint256"
        },
        {
          "internalType": "uint256",
          "name": "_salePrice",
          "type": "uint256"
        }
      ],
      "name": "offerTicketForSale",
      "outputs": [],
      "stateMutability": "nonpayable",
      "type": "function"
    },
    {
      "inputs": [
        {
          "internalType": "uint256",
          "name": "_ticketId",
          "type": "uint256"
        }
      ],
      "name": "buySecondHandTicket",
      "outputs": [],
      "stateMutability": "payable",
      "type": "function",
      "payable": true
    }
  ],
  "bytecode": "0x60806040526000805560006002556000600555600060065534801561002357600080fd5b50612a8f806100336000396000f3fe60806040526004361061012a5760003560e01c806388d65846116100ab578063a88ae8151161006f578063a88ae815146103b3578063b8a28336146103f4578063d6ecc2b11461041f578063e03536f314610448578063e62e4f8d14610471578063f02eafd11461049a5761012a565b806388d65846146102cc5780638ee0feee146102f557806390b3b0141461032057806392fc3b081461034957806397af2930146103725761012a565b80635dfe9291116100f25780635dfe9291146101fe578063640c490914610240578063679ebf1a1461025c57806367dd74ca1461028557806368771d75146102a15761012a565b806308b2ce021461012f578063176067371461015a5780632660644814610183578063486ff9ae146101ac57806359cb327a146101d5575b600080fd5b34801561013b57600080fd5b506101446104df565b6040516101519190612791565b60405180910390f35b34801561016657600080fd5b50610181600480360361017c919081019061215c565b6104e5565b005b34801561018f57600080fd5b506101aa60048036036101a5919081019061201d565b6106c4565b005b3480156101b857600080fd5b506101d360048036036101ce9190810190612046565b610921565b005b3480156101e157600080fd5b506101fc60048036036101f79190810190611fce565b610b8a565b005b34801561020a57600080fd5b506102256004803603610220919081019061201d565b610cd1565b6040516102379695949392919061287b565b60405180910390f35b61025a6004803603610255919081019061201d565b610d47565b005b34801561026857600080fd5b50610283600480360361027e9190810190612046565b610ee0565b005b61029f600480360361029a919081019061201d565b611018565b005b3480156102ad57600080fd5b506102b6611280565b6040516102c39190612791565b60405180910390f35b3480156102d857600080fd5b506102f360048036036102ee91908101906120e5565b611286565b005b34801561030157600080fd5b5061030a611410565b6040516103179190612791565b60405180910390f35b34801561032c57600080fd5b5061034760048036036103429190810190612082565b611416565b005b34801561035557600080fd5b50610370600480360361036b919081019061201d565b611584565b005b34801561037e57600080fd5b506103996004803603610394919081019061201d565b61175a565b6040516103aa9594939291906127d5565b60405180910390f35b3480156103bf57600080fd5b506103da60048036036103d5919081019061201d565b6117b0565b6040516103eb959493929190612828565b60405180910390f35b34801561040057600080fd5b50610409611806565b6040516104169190612791565b60405180910390f35b34801561042b57600080fd5b5061044660048036036104419190810190612046565b61180c565b005b34801561045457600080fd5b5061046f600480360361046a9190810190612198565b611ab1565b005b34801561047d57600080fd5b5061049860048036036104939190810190611f92565b611c84565b005b3480156104a657600080fd5b506104c160048036036104bc919081019061201d565b611dbb565b6040516104d6999897969594939291906128dc565b60405180910390f35b60055481565b816007600082815260200190815260200160002060020160009054906101000a900473ffffffffffffffffffffffffffffffffffffffff1673ffffffffffffffffffffffffffffffffffffffff163373ffffffffffffffffffffffffffffffffffffffff161461058a576040517f08c379a000000000000000000000000000000000000000000000000000000000815260040161058190612751565b60405180910390fd5b8160046000600760008781526020019081526020016000206001015481526020019081526020016000206004015410156105f9576040517f08c379a00000000000000000000000000000000000000000000000000000000081526004016105f090612651565b60405180910390fd5b8160046000600760008781526020019081526020016000206001015481526020019081526020016000206004018190555060016007600085815260200190815260200160002060040160006101000a81548160ff02191690831515021790555060016007600085815260200190815260200160002060040160016101000a81548160ff0219169083151502179055507f15daa7f19caf2b08ab59893224645866301830b89ccc09ef6ea7d7a2f1fcce55836040516106b79190612791565b60405180910390a1505050565b806007600082815260200190815260200160002060020160009054906101000a900473ffffffffffffffffffffffffffffffffffffffff1673ffffffffffffffffffffffffffffffffffffffff163373ffffffffffffffffffffffffffffffffffffffff1614610769576040517f08c379a000000000000000000000000000000000000000000000000000000000815260040161076090612751565b60405180910390fd5b8162015180420160046000600760008581526020019081526020016000206001015481526020019081526020016000206003015411156107de576040517f08c379a00000000000000000000000000000000000000000000000000000000081526004016107d590612671565b60405180910390fd5b8260011515600460006007600085815260200190815260200160002060010154815260200190815260200160002060050160019054906101000a900460ff1615151461085f576040517f08c379a0000000000000000000000000000000000000000000000000000000008152600401610856906126d1565b60405180910390fd5b60006007600086815260200190815260200160002060040160006101000a81548160ff02191690831515021790555060006007600086815260200190815260200160002060020160006101000a81548173ffffffffffffffffffffffffffffffffffffffff021916908373ffffffffffffffffffffffffffffffffffffffff1602179055507f642b5f9b9ffd8c37a03b8059ad4e457d78385d2e9c3ec411c9bd699f7cc979ed846040516109139190612791565b60405180910390a150505050565b60046000838152602001908152602001600020600101546001600082815260200190815260200160002060040160009054906101000a900473ffffffffffffffffffffffffffffffffffffffff1673ffffffffffffffffffffffffffffffffffffffff163373ffffffffffffffffffffffffffffffffffffffff16146109dc576040517f08c379a00000000000000000000000000000000000000000000000000000000081526004016109d390612771565b60405180910390fd5b6109e4611e23565b6006600081548092919060010191905055506006548160000181815250508381602001818152505082816040019073ffffffffffffffffffffffffffffffffffffffff16908173ffffffffffffffffffffffffffffffffffffffff1681525050600181608001901515908115158152505060018160a001901515908115158152505080600760006006548152602001908152602001600020600082015181600001556020820151816001015560408201518160020160006101000a81548173ffffffffffffffffffffffffffffffffffffffff021916908373ffffffffffffffffffffffffffffffffffffffff1602179055506060820151816003015560808201518160040160006101000a81548160ff02191690831515021790555060a08201518160040160016101000a81548160ff021916908315150217905550905050600160046000868152602001908152602001600020600601600082825401925050819055507f8d860a22a10362d00ec01f9cdee97d33340890d506acee3cdb2f62ba29b5c35c8160000151604051610b7c9190612791565b60405180910390a150505050565b610b92611e73565b60026000815480929190600101919050555060025481600001818152505083816020018181525050828160400181815250508181606001818152505033816080019073ffffffffffffffffffffffffffffffffffffffff16908173ffffffffffffffffffffffffffffffffffffffff16815250508060036000836000015181526020019081526020016000206000820151816000015560208201518160010155604082015181600201556060820151816003015560808201518160040160006101000a81548173ffffffffffffffffffffffffffffffffffffffff021916908373ffffffffffffffffffffffffffffffffffffffff1602179055509050507f065eb9c9378139878c972d88e10412c1cda40b2757a66cae597cccec532a8ccc8160000151604051610cc39190612791565b60405180910390a150505050565b60076020528060005260406000206000915090508060000154908060010154908060020160009054906101000a900473ffffffffffffffffffffffffffffffffffffffff16908060030154908060040160009054906101000a900460ff16908060040160019054906101000a900460ff16905086565b600460006007600084815260200190815260200160002060010154815260200190815260200160002060040154341015610db6576040517f08c379a0000000000000000000000000000000000000000000000000000000008152600401610dad90612691565b60405180910390fd5b600115156007600083815260200190815260200160002060040160009054906101000a900460ff16151514610e20576040517f08c379a0000000000000000000000000000000000000000000000000000000008152600401610e1790612731565b60405180910390fd5b336007600083815260200190815260200160002060020160006101000a81548173ffffffffffffffffffffffffffffffffffffffff021916908373ffffffffffffffffffffffffffffffffffffffff16021790555060006007600083815260200190815260200160002060040160016101000a81548160ff0219169083151502179055507fa1d4c24cb60d37bda2c1d3658e379b6f41c86de20eaeb3055a70ab90760ad3808133604051610ed59291906127ac565b60405180910390a150565b816007600082815260200190815260200160002060020160009054906101000a900473ffffffffffffffffffffffffffffffffffffffff1673ffffffffffffffffffffffffffffffffffffffff163373ffffffffffffffffffffffffffffffffffffffff1614610f85576040517f08c379a0000000000000000000000000000000000000000000000000000000008152600401610f7c90612751565b60405180910390fd5b816007600085815260200190815260200160002060020160006101000a81548173ffffffffffffffffffffffffffffffffffffffff021916908373ffffffffffffffffffffffffffffffffffffffff1602179055507f01eaf4bad1156a61620cefe4be24860dd458c5563a7f19549947dcc8a71fddca838360405161100b9291906127ac565b60405180910390a1505050565b60046000828152602001908152602001600020600401543414611070576040517f08c379a0000000000000000000000000000000000000000000000000000000008152600401611067906126f1565b60405180910390fd5b611078611e23565b6006600081548092919060010191905055506006548160000181815250508181602001818152505033816040019073ffffffffffffffffffffffffffffffffffffffff16908173ffffffffffffffffffffffffffffffffffffffff1681525050600181608001901515908115158152505060008160a00190151590811515815250503481606001818152505034600460008481526020019081526020016000206007016000828254019250508190555080600760006006548152602001908152602001600020600082015181600001556020820151816001015560408201518160020160006101000a81548173ffffffffffffffffffffffffffffffffffffffff021916908373ffffffffffffffffffffffffffffffffffffffff1602179055506060820151816003015560808201518160040160006101000a81548160ff02191690831515021790555060a08201518160040160016101000a81548160ff02191690831515021790555090505060016004600084815260200190815260200160002060060160008282540192505081905550600180600060046000868152602001908152602001600020600101548152602001908152602001600020600301600082825401925050819055507ff16d6eda5c465ff67f9d8214bbdf4a6453ad9f97128c07902113c67ccbaef1b1826040516112749190612791565b60405180910390a15050565b60025481565b846003600082815260200190815260200160002060040160009054906101000a900473ffffffffffffffffffffffffffffffffffffffff1673ffffffffffffffffffffffffffffffffffffffff163373ffffffffffffffffffffffffffffffffffffffff161461132b576040517f08c379a000000000000000000000000000000000000000000000000000000000815260040161132290612711565b60405180910390fd5b846003600088815260200190815260200160002060010181905550836003600088815260200190815260200160002060020181905550826003600088815260200190815260200160002060030181905550816003600088815260200190815260200160002060040160006101000a81548173ffffffffffffffffffffffffffffffffffffffff021916908373ffffffffffffffffffffffffffffffffffffffff1602179055507f0c291a9862bb547b7403ca72a6183d374a11f6a0c06d00ed9b31466ecb8f6e87866040516114009190612791565b60405180910390a1505050505050565b60005481565b836001600082815260200190815260200160002060040160009054906101000a900473ffffffffffffffffffffffffffffffffffffffff1673ffffffffffffffffffffffffffffffffffffffff163373ffffffffffffffffffffffffffffffffffffffff16146114bb576040517f08c379a00000000000000000000000000000000000000000000000000000000081526004016114b290612771565b60405180910390fd5b836001600087815260200190815260200160002060010181905550826001600087815260200190815260200160002060020181905550816001600087815260200190815260200160002060040160006101000a81548173ffffffffffffffffffffffffffffffffffffffff021916908373ffffffffffffffffffffffffffffffffffffffff1602179055507f3576f4b8baa73b0a0db33288241f829166d3b67ac545606415f99dd82e43b722856040516115759190612791565b60405180910390a15050505050565b600160006004600084815260200190815260200160002060010154815260200190815260200160002060040160009054906101000a900473ffffffffffffffffffffffffffffffffffffffff1673ffffffffffffffffffffffffffffffffffffffff163373ffffffffffffffffffffffffffffffffffffffff16141561166f5760016004600083815260200190815260200160002060050160006101000a81548160ff0219169083151502179055507f85e3bbcf2deebf3a4a0bf056a3c8b70cfb4a594dc84a6637624aca351d9bcdbd816040516116629190612791565b60405180910390a1611757565b600360006004600084815260200190815260200160002060020154815260200190815260200160002060040160009054906101000a900473ffffffffffffffffffffffffffffffffffffffff1673ffffffffffffffffffffffffffffffffffffffff163373ffffffffffffffffffffffffffffffffffffffff1614156117565760016004600083815260200190815260200160002060050160016101000a81548160ff0219169083151502179055507fe95365005ab84ee26b2d27237f3b2811fe85e420b279fff9d98016edf8ae29758160405161174d9190612791565b60405180910390a15b5b50565b60016020528060005260406000206000915090508060000154908060010154908060020154908060030154908060040160009054906101000a900473ffffffffffffffffffffffffffffffffffffffff16905085565b60036020528060005260406000206000915090508060000154908060010154908060020154908060030154908060040160009054906101000a900473ffffffffffffffffffffffffffffffffffffffff16905085565b60065481565b81600160006004600084815260200190815260200160002060010154815260200190815260200160002060040160009054906101000a900473ffffffffffffffffffffffffffffffffffffffff1673ffffffffffffffffffffffffffffffffffffffff163373ffffffffffffffffffffffffffffffffffffffff16146118c7576040517f08c379a00000000000000000000000000000000000000000000000000000000081526004016118be906126b1565b60405180910390fd5b4260046000858152602001908152602001600020600301541115611920576040517f08c379a000000000000000000000000000000000000000000000000000000000815260040161191790612671565b60405180910390fd5b600060046000858152602001908152602001600020600601546004600086815260200190815260200160002060040154029050600061271060036000600460008981526020019081526020016000206002015481526020019081526020016000206003015483028161198e57fe5b049050600081830390508473ffffffffffffffffffffffffffffffffffffffff166108fc829081150290604051600060405180830381858888f193505050501580156119de573d6000803e3d6000fd5b50600360006004600089815260200190815260200160002060020154815260200190815260200160002060040160009054906101000a900473ffffffffffffffffffffffffffffffffffffffff1673ffffffffffffffffffffffffffffffffffffffff166108fc839081150290604051600060405180830381858888f19350505050158015611a71573d6000803e3d6000fd5b507f1e691041ad93c43415fc1ece893e217497a89b6fccff587cbe7356971ac757eb86604051611aa19190612791565b60405180910390a1505050505050565b600560008154809291906001019190505550611acb611ebb565b600554816000018181525050848160200181815250508381604001818152505082816060018181525050818160800181815250506001600086815260200190815260200160002060040160009054906101000a900473ffffffffffffffffffffffffffffffffffffffff1673ffffffffffffffffffffffffffffffffffffffff163373ffffffffffffffffffffffffffffffffffffffff161415611b7f5760018160a0019015159081151581525050611b91565b60008160a00190151590811515815250505b60008160c0019015159081151581525050806004600083600001518152602001908152602001600020600082015181600001556020820151816001015560408201518160020155606082015181600301556080820151816004015560a08201518160050160006101000a81548160ff02191690831515021790555060c08201518160050160016101000a81548160ff02191690831515021790555060e0820151816006015561010082015181600701559050507f040ada5a276eaec33bc1c73b63cfafeabe9f768c733988250055c6a9d24f7bbf600554604051611c759190612791565b60405180910390a15050505050565b611c8c611f0b565b60016000808282540192505081905550600054816000018181525050828160200181815250508181604001818152505033816080019073ffffffffffffffffffffffffffffffffffffffff16908173ffffffffffffffffffffffffffffffffffffffff16815250508060016000805481526020019081526020016000206000820151816000015560208201518160010155604082015181600201556060820151816003015560808201518160040160006101000a81548173ffffffffffffffffffffffffffffffffffffffff021916908373ffffffffffffffffffffffffffffffffffffffff1602179055509050507fe7901ea5acc0253403d308920e2101ea433e7d35ff5dabbbe9d64173edae77db8160000151604051611dae9190612791565b60405180910390a1505050565b60046020528060005260406000206000915090508060000154908060010154908060020154908060030154908060040154908060050160009054906101000a900460ff16908060050160019054906101000a900460ff16908060060154908060070154905089565b6040518060c001604052806000815260200160008152602001600073ffffffffffffffffffffffffffffffffffffffff168152602001600081526020016000151581526020016000151581525090565b6040518060a0016040528060008152602001600080191681526020016000815260200160008152602001600073ffffffffffffffffffffffffffffffffffffffff1681525090565b604051806101200160405280600081526020016000815260200160008152602001600081526020016000815260200160001515815260200160001515815260200160008152602001600081525090565b6040518060a0016040528060008152602001600080191681526020016000815260200160008152602001600073ffffffffffffffffffffffffffffffffffffffff1681525090565b600081359050611f6281612a14565b92915050565b600081359050611f7781612a2b565b92915050565b600081359050611f8c81612a42565b92915050565b60008060408385031215611fa557600080fd5b6000611fb385828601611f68565b9250506020611fc485828601611f7d565b9150509250929050565b600080600060608486031215611fe357600080fd5b6000611ff186828701611f68565b935050602061200286828701611f7d565b925050604061201386828701611f7d565b9150509250925092565b60006020828403121561202f57600080fd5b600061203d84828501611f7d565b91505092915050565b6000806040838503121561205957600080fd5b600061206785828601611f7d565b925050602061207885828601611f53565b9150509250929050565b6000806000806080858703121561209857600080fd5b60006120a687828801611f7d565b94505060206120b787828801611f68565b93505060406120c887828801611f7d565b92505060606120d987828801611f53565b91505092959194509250565b600080600080600060a086880312156120fd57600080fd5b600061210b88828901611f7d565b955050602061211c88828901611f68565b945050604061212d88828901611f7d565b935050606061213e88828901611f7d565b925050608061214f88828901611f53565b9150509295509295909350565b6000806040838503121561216f57600080fd5b600061217d85828601611f7d565b925050602061218e85828601611f7d565b9150509250929050565b600080600080608085870312156121ae57600080fd5b60006121bc87828801611f7d565b94505060206121cd87828801611f7d565b93505060406121de87828801611f7d565b92505060606121ef87828801611f7d565b91505092959194509250565b612204816129de565b82525050565b6122138161298c565b82525050565b6122228161297a565b82525050565b6122318161299e565b82525050565b612240816129aa565b82525050565b6000612253603c83612969565b91507f4572726f722c20796f752063616e27742073616c652061207469636b6574206660008301527f6f72206d6f7265207468616e20796f75207061696420666f72206974000000006020830152604082019050919050565b60006122b9603883612969565b91507f4572726f722c20796f752063616e27742075736520746865207469636b65742060008301527f6265666f72652074686520636f6e6365727420646174652e00000000000000006020830152604082019050919050565b600061231f602483612969565b91507f4572726f722c207468652076616c75652073656e74206973206e6f7420656e6f60008301527f7567682e000000000000000000000000000000000000000000000000000000006020830152604082019050919050565b6000612385601e83612969565b91507f596f7520617265206e6f742074686520636f6e63657274206f776e65722e00006000830152602082019050919050565b60006123c5602c83612969565b91507f4572726f722c207468652076656e7565206173206e6f742076616c696461746560008301527f6420746865206576656e742e00000000000000000000000000000000000000006020830152604082019050919050565b600061242b604a83612969565b91507f4572726f722c207468652070726963652073656e74206973206e6f7420656e6f60008301527f7567682e20506c6561736520636865636b2074686520636f6e6365727420707260208301527f6963652061736b65642e000000000000000000000000000000000000000000006040830152606082019050919050565b60006124b7602383612969565b91507f596f7520617265206e6f7420746865206f776e6572206f66207468652076656e60008301527f75652e00000000000000000000000000000000000000000000000000000000006020830152604082019050919050565b600061251d602a83612969565b91507f4572726f722c20746865207469636b65742069736e277420617661696c61626c60008301527f6520616e796d6f72652e000000000000000000000000000000000000000000006020830152604082019050919050565b6000612583602b83612969565b91507f4572726f722c20796f7520617265206e6f7420746865206f776e6572206f662060008301527f746865207469636b65742e0000000000000000000000000000000000000000006020830152604082019050919050565b60006125e9602383612969565b91507f596f7520617265206e6f7420746865206f776e6572206f66207468652061727460008301527f69737400000000000000000000000000000000000000000000000000000000006020830152604082019050919050565b61264b816129d4565b82525050565b6000602082019050818103600083015261266a81612246565b9050919050565b6000602082019050818103600083015261268a816122ac565b9050919050565b600060208201905081810360008301526126aa81612312565b9050919050565b600060208201905081810360008301526126ca81612378565b9050919050565b600060208201905081810360008301526126ea816123b8565b9050919050565b6000602082019050818103600083015261270a8161241e565b9050919050565b6000602082019050818103600083015261272a816124aa565b9050919050565b6000602082019050818103600083015261274a81612510565b9050919050565b6000602082019050818103600083015261276a81612576565b9050919050565b6000602082019050818103600083015261278a816125dc565b9050919050565b60006020820190506127a66000830184612642565b92915050565b60006040820190506127c16000830185612642565b6127ce60208301846121fb565b9392505050565b600060a0820190506127ea6000830188612642565b6127f76020830187612237565b6128046040830186612642565b6128116060830185612642565b61281e6080830184612219565b9695505050505050565b600060a08201905061283d6000830188612642565b61284a6020830187612237565b6128576040830186612642565b6128646060830185612642565b612871608083018461220a565b9695505050505050565b600060c0820190506128906000830189612642565b61289d6020830188612642565b6128aa6040830187612219565b6128b76060830186612642565b6128c46080830185612228565b6128d160a0830184612228565b979650505050505050565b6000610120820190506128f2600083018c612642565b6128ff602083018b612642565b61290c604083018a612642565b6129196060830189612642565b6129266080830188612642565b61293360a0830187612228565b61294060c0830186612228565b61294d60e0830185612642565b61295b610100830184612642565b9a9950505050505050505050565b600082825260208201905092915050565b6000612985826129b4565b9050919050565b6000612997826129b4565b9050919050565b60008115159050919050565b6000819050919050565b600073ffffffffffffffffffffffffffffffffffffffff82169050919050565b6000819050919050565b60006129e9826129f0565b9050919050565b60006129fb82612a02565b9050919050565b6000612a0d826129b4565b9050919050565b612a1d8161298c565b8114612a2857600080fd5b50565b612a34816129aa565b8114612a3f57600080fd5b50565b612a4b816129d4565b8114612a5657600080fd5b5056fea26469706673582212204a4cd039676cc6cd83b0a2cb67875e85091d7345c051ec7994b700e2ca97734964736f6c63430006000033",
  "source": "pragma solidity ^0.6.0;\r\npragma experimental ABIEncoderV2;\r\n\r\ncontract ticketingSystem {\r\n\r\n    uint public totalOfArtists = 0;\r\n\r\n    struct artist {\r\n        uint id;\r\n        bytes32 name;\r\n        uint artistCategory;\r\n        uint totalTicketSold;\r\n        address owner;\r\n    }\r\n    mapping( uint => artist ) public artistsRegister;\r\n\r\n    event newArtistCreated(uint);\r\n\r\n    function createArtist(bytes32 _name, uint _categroy) public {\r\n        artist memory newArtist;\r\n        totalOfArtists += 1;\r\n        newArtist.id = totalOfArtists;\r\n        newArtist.name = _name;\r\n        newArtist.artistCategory = _categroy;\r\n        newArtist.owner = msg.sender;\r\n        artistsRegister[totalOfArtists] = newArtist;\r\n        emit newArtistCreated(newArtist.id);\r\n    }\r\n\r\n    // event artistRegistered(uint);\r\n\r\n    // function artistsRegister(uint id) public returns (artist memory) {\r\n    //     emit artistRegistered(id);\r\n    //     return artistList[id];\r\n    // }\r\n\r\n    modifier onlyArtistOwner(uint _id){\r\n        require(msg.sender == artistsRegister[_id].owner, \"You are not the owner of the artist\");\r\n        _;\r\n    }\r\n    event artistModified(uint);\r\n\r\n    function modifyArtist(uint _id, bytes32 _name, uint _categroy, address payable _address) public onlyArtistOwner(_id) {\r\n        artistsRegister[_id].name = _name;\r\n        artistsRegister[_id].artistCategory = _categroy;\r\n        artistsRegister[_id].owner = _address;\r\n        emit artistModified(_id);\r\n    }\r\n\r\n    struct venue{\r\n        uint id;\r\n        bytes32 name;\r\n        uint capacity;\r\n        uint standardComission;\r\n        address payable owner;\r\n    }\r\n\r\n    uint public totalOfVenues = 0;\r\n\r\n    mapping( uint => venue ) public venuesRegister;\r\n    event venueCreated(uint);\r\n\r\n    function createVenue(bytes32 _name, uint _capacity, uint _standardComission) public {\r\n        venue memory newVenue;\r\n        totalOfVenues++;\r\n        newVenue.id = totalOfVenues;\r\n        newVenue.name = _name;\r\n        newVenue.capacity = _capacity;\r\n        newVenue.standardComission = _standardComission;\r\n        newVenue.owner = msg.sender;\r\n        venuesRegister[newVenue.id] = newVenue;\r\n        emit venueCreated(newVenue.id);\r\n    }\r\n\r\n    modifier onlyVenueOwner(uint _id){\r\n        require(msg.sender == venuesRegister[_id].owner, \"You are not the owner of the venue.\");\r\n        _;\r\n    }\r\n\r\n    event venueModified(uint);\r\n\r\n    function modifyVenue(uint _venueId, bytes32 _name, uint _capacity, uint _standardComission, address payable _newOwner)\r\n        public onlyVenueOwner(_venueId){\r\n        venuesRegister[_venueId].name = _name;\r\n        venuesRegister[_venueId].capacity = _capacity;\r\n        venuesRegister[_venueId].standardComission = _standardComission;\r\n        venuesRegister[_venueId].owner = _newOwner;\r\n        emit venueModified(_venueId);\r\n    }\r\n\r\n    struct concert{\r\n        uint concertId;\r\n        uint artistId;\r\n        uint venueId;\r\n        uint concertDate;\r\n        uint ticketPrice;\r\n        bool validatedByArtist;\r\n        bool validatedByVenue;\r\n        uint totalSoldTicket;\r\n        uint totalMoneyCollected;\r\n    }\r\n    mapping( uint => concert ) public concertsRegister;\r\n    uint public totalOfConcerts = 0;\r\n\r\n    event concertCreated(uint);\r\n\r\n    function createConcert(uint _artistId, uint _venueId, uint _concertDate, uint _ticketPrice) public {\r\n        totalOfConcerts++;\r\n        concert memory newConcert;\r\n        newConcert.concertId = totalOfConcerts;\r\n        newConcert.artistId = _artistId;\r\n        newConcert.venueId = _venueId;\r\n        newConcert.concertDate = _concertDate;\r\n        newConcert.ticketPrice = _ticketPrice;\r\n        if (msg.sender == artistsRegister[_artistId].owner){\r\n            newConcert.validatedByArtist = true;\r\n        }\r\n        else{\r\n            newConcert.validatedByArtist = false;\r\n        }\r\n        newConcert.validatedByVenue = false;\r\n        concertsRegister[newConcert.concertId] = newConcert;\r\n        emit concertCreated(totalOfConcerts);\r\n    }\r\n\r\n    event concertValidatedByArtist(uint);\r\n    event concertValidatedByVenue(uint);\r\n\r\n    function validateConcert(uint _concertId) public {\r\n        if( msg.sender == artistsRegister[concertsRegister[_concertId].artistId].owner){\r\n            concertsRegister[_concertId].validatedByArtist = true;\r\n            emit concertValidatedByArtist(_concertId);\r\n        }\r\n        else if (msg.sender == venuesRegister[concertsRegister[_concertId].venueId].owner){\r\n            concertsRegister[_concertId].validatedByVenue = true;\r\n            emit concertValidatedByVenue(_concertId);\r\n        }\r\n    }\r\n\r\n\r\n    struct ticket{\r\n        uint ticketId; //don't initialize concertId = 0 !\r\n        uint concertId;\r\n        address owner;\r\n        uint amountPaid;\r\n        bool isAvailable;\r\n        bool isAvailableForSale;\r\n    }\r\n    uint public totalTicket = 0;\r\n    mapping( uint => ticket ) public ticketsRegister;\r\n\r\n    event newTicketEmitted(uint);\r\n\r\n    function emitTicket(uint _concertId, address payable _ticketOwner) public onlyArtistOwner(concertsRegister[_concertId].artistId) {\r\n        ticket memory newTicket;\r\n        totalTicket++;\r\n        newTicket.ticketId = totalTicket;\r\n        newTicket.concertId = _concertId;\r\n        newTicket.owner = _ticketOwner;\r\n        newTicket.isAvailable = true;\r\n        newTicket.isAvailableForSale = true;\r\n        ticketsRegister[totalTicket] = newTicket;\r\n        concertsRegister[_concertId].totalSoldTicket += 1;\r\n        emit newTicketEmitted(newTicket.ticketId);\r\n    }\r\n\r\n    modifier onlyTicketOwner(uint _ticketId){\r\n        require(msg.sender == ticketsRegister[_ticketId].owner,\"Error, you are not the owner of the ticket.\");\r\n        _;\r\n    }\r\n    modifier onlyTheDayOf(uint _ticketId){\r\n        require(concertsRegister[ticketsRegister[_ticketId].concertId].concertDate <= now + 1 days,\r\n        \"Error, you can't use the ticket before the concert date.\");\r\n        _;\r\n    }\r\n    modifier onlyIfValidatedByVenue(uint _ticketId){\r\n        require(concertsRegister[ticketsRegister[_ticketId].concertId].validatedByVenue == true, \"Error, the venue as not validated the event.\");\r\n        _;\r\n    }\r\n\r\n    event ticketUsed(uint);\r\n\r\n    function useTicket(uint _ticketId) public\r\n        onlyTicketOwner(_ticketId)\r\n        onlyTheDayOf(_ticketId)\r\n        onlyIfValidatedByVenue(_ticketId){\r\n            ticketsRegister[_ticketId].isAvailable = false;\r\n            ticketsRegister[_ticketId].owner = address(0);\r\n            emit ticketUsed(_ticketId);\r\n    }\r\n\r\n    event buyTicketSucceed(uint);\r\n\r\n    function buyTicket(uint _concertId) public payable{\r\n        require(msg.value == concertsRegister[_concertId].ticketPrice,\r\n        \"Error, the price sent is not enough. Please check the concert price asked.\");\r\n        ticket memory newTicket;\r\n        totalTicket++;\r\n        newTicket.ticketId = totalTicket;\r\n        newTicket.concertId = _concertId;\r\n        newTicket.owner = msg.sender;\r\n        newTicket.isAvailable = true;\r\n        newTicket.isAvailableForSale = false;\r\n        newTicket.amountPaid = msg.value;\r\n        concertsRegister[_concertId].totalMoneyCollected += msg.value;\r\n        ticketsRegister[totalTicket] = newTicket;\r\n        concertsRegister[_concertId].totalSoldTicket += 1;\r\n        artistsRegister[concertsRegister[_concertId].artistId].totalTicketSold += 1;\r\n        emit buyTicketSucceed(_concertId);\r\n    }\r\n\r\n    event ticketTransfered(uint,address);\r\n\r\n    function transferTicket(uint _ticketId, address payable _newOwner) public onlyTicketOwner(_ticketId){\r\n        ticketsRegister[_ticketId].owner = _newOwner;\r\n        emit ticketTransfered(_ticketId,_newOwner);\r\n    }\r\n\r\n    event concertCashOut(uint);\r\n\r\n    modifier onlyConcertOwner(uint id) {\r\n        require(msg.sender == artistsRegister[concertsRegister[id].artistId].owner,\"You are not the concert owner.\");\r\n        _;\r\n    }\r\n\r\n    function cashOutConcert(uint _concertId, address payable _cashOutAddress) public onlyConcertOwner(_concertId) {\r\n        require(concertsRegister[_concertId].concertDate <= now,\r\n        \"Error, you can't use the ticket before the concert date.\");\r\n        //computation\r\n        uint totalTicketSale = concertsRegister[_concertId].ticketPrice * concertsRegister[_concertId].totalSoldTicket;\r\n        uint venueShare = totalTicketSale * venuesRegister[concertsRegister[_concertId].venueId].standardComission / 10000;\r\n        uint artistShare = totalTicketSale - venueShare;\r\n        _cashOutAddress.transfer(artistShare);\r\n        venuesRegister[concertsRegister[_concertId].venueId].owner.transfer(venueShare);\r\n        emit concertCashOut(_concertId);\r\n    }\r\n\r\n    event ticketOfferedForSale(uint);\r\n\r\n    function offerTicketForSale(uint _ticketId, uint _salePrice) public onlyTicketOwner(_ticketId){\r\n        require(concertsRegister[ticketsRegister[_ticketId].concertId].ticketPrice >= _salePrice,\r\n        \"Error, you can't sale a ticket for more than you paid for it\");\r\n        concertsRegister[ticketsRegister[_ticketId].concertId].ticketPrice = _salePrice;\r\n        ticketsRegister[_ticketId].isAvailable = true;\r\n        ticketsRegister[_ticketId].isAvailableForSale = true;\r\n        emit ticketOfferedForSale(_ticketId);\r\n    }\r\n\r\n    event ticketBoughtSecondHand(uint,address);\r\n\r\n    function buySecondHandTicket(uint _ticketId) public payable {\r\n        require(msg.value >= concertsRegister[ticketsRegister[_ticketId].concertId].ticketPrice,\r\n        \"Error, the value sent is not enough.\");\r\n        require(ticketsRegister[_ticketId].isAvailable == true,\r\n        \"Error, the ticket isn't available anymore.\");\r\n        ticketsRegister[_ticketId].owner = msg.sender;\r\n        ticketsRegister[_ticketId].isAvailableForSale = false;\r\n        emit ticketBoughtSecondHand(_ticketId,msg.sender);\r\n    }\r\n\r\n\r\n}",
  "sourcePath": "C:\\Users\\marti\\Desktop\\ESILV\\FinTech_S9\\Blockchain_Programming\\TD8_truffle-testing\\contracts\\ticketingSystem.sol",
  "compiler": {
    "name": "solc",
    "version": "0.6.0+commit.26b70077.Emscripten.clang"
  },
  "schemaVersion": "3.0.23",
  "updatedAt": "2020-03-23T14:14:04.861Z",
  "networkType": "ethereum",
  "devdoc": {
    "methods": {}
  },
  "userdoc": {
    "methods": {}
  }
}