{
  "contractName": "ticketingSystem",
  "abi": [
    {
      "anonymous": false,
      "inputs": [
        {
          "indexed": false,
          "internalType": "uint256",
          "name": "",
          "type": "uint256"
        }
      ],
      "name": "artistModified",
      "type": "event"
    },
    {
      "anonymous": false,
      "inputs": [
        {
          "indexed": false,
          "internalType": "uint256",
          "name": "",
          "type": "uint256"
        }
      ],
      "name": "buyTicketFailed",
      "type": "event"
    },
    {
      "anonymous": false,
      "inputs": [
        {
          "indexed": false,
          "internalType": "uint256",
          "name": "",
          "type": "uint256"
        }
      ],
      "name": "buyTicketSucceed",
      "type": "event"
    },
    {
      "anonymous": false,
      "inputs": [
        {
          "indexed": false,
          "internalType": "uint256",
          "name": "",
          "type": "uint256"
        }
      ],
      "name": "concertCreated",
      "type": "event"
    },
    {
      "anonymous": false,
      "inputs": [
        {
          "indexed": false,
          "internalType": "uint256",
          "name": "",
          "type": "uint256"
        }
      ],
      "name": "concertValidatedByArtist",
      "type": "event"
    },
    {
      "anonymous": false,
      "inputs": [
        {
          "indexed": false,
          "internalType": "uint256",
          "name": "",
          "type": "uint256"
        }
      ],
      "name": "concertValidatedByVenue",
      "type": "event"
    },
    {
      "anonymous": false,
      "inputs": [
        {
          "indexed": false,
          "internalType": "uint256",
          "name": "",
          "type": "uint256"
        }
      ],
      "name": "newArtistCreated",
      "type": "event"
    },
    {
      "anonymous": false,
      "inputs": [
        {
          "indexed": false,
          "internalType": "uint256",
          "name": "",
          "type": "uint256"
        }
      ],
      "name": "newTicketEmitted",
      "type": "event"
    },
    {
      "anonymous": false,
      "inputs": [
        {
          "indexed": false,
          "internalType": "uint256",
          "name": "",
          "type": "uint256"
        },
        {
          "indexed": false,
          "internalType": "address",
          "name": "",
          "type": "address"
        }
      ],
      "name": "ticketTransfered",
      "type": "event"
    },
    {
      "anonymous": false,
      "inputs": [
        {
          "indexed": false,
          "internalType": "uint256",
          "name": "",
          "type": "uint256"
        }
      ],
      "name": "ticketUsed",
      "type": "event"
    },
    {
      "anonymous": false,
      "inputs": [
        {
          "indexed": false,
          "internalType": "uint256",
          "name": "",
          "type": "uint256"
        }
      ],
      "name": "venueCreated",
      "type": "event"
    },
    {
      "anonymous": false,
      "inputs": [
        {
          "indexed": false,
          "internalType": "uint256",
          "name": "",
          "type": "uint256"
        }
      ],
      "name": "venueModified",
      "type": "event"
    },
    {
      "inputs": [
        {
          "internalType": "uint256",
          "name": "",
          "type": "uint256"
        }
      ],
      "name": "artistsRegister",
      "outputs": [
        {
          "internalType": "uint256",
          "name": "id",
          "type": "uint256"
        },
        {
          "internalType": "bytes32",
          "name": "name",
          "type": "bytes32"
        },
        {
          "internalType": "uint256",
          "name": "category",
          "type": "uint256"
        },
        {
          "internalType": "address",
          "name": "owner",
          "type": "address"
        }
      ],
      "stateMutability": "view",
      "type": "function",
      "constant": true
    },
    {
      "inputs": [
        {
          "internalType": "uint256",
          "name": "",
          "type": "uint256"
        }
      ],
      "name": "concertsRegister",
      "outputs": [
        {
          "internalType": "uint256",
          "name": "concertId",
          "type": "uint256"
        },
        {
          "internalType": "uint256",
          "name": "artistId",
          "type": "uint256"
        },
        {
          "internalType": "uint256",
          "name": "venueId",
          "type": "uint256"
        },
        {
          "internalType": "uint256",
          "name": "concertDate",
          "type": "uint256"
        },
        {
          "internalType": "uint256",
          "name": "ticketPrice",
          "type": "uint256"
        },
        {
          "internalType": "bool",
          "name": "validatedByArtist",
          "type": "bool"
        },
        {
          "internalType": "bool",
          "name": "validatedByVenue",
          "type": "bool"
        },
        {
          "internalType": "uint256",
          "name": "totalSoldTicket",
          "type": "uint256"
        },
        {
          "internalType": "uint256",
          "name": "totalMoneyCollected",
          "type": "uint256"
        }
      ],
      "stateMutability": "view",
      "type": "function",
      "constant": true
    },
    {
      "inputs": [
        {
          "internalType": "uint256",
          "name": "",
          "type": "uint256"
        }
      ],
      "name": "ticketsRegister",
      "outputs": [
        {
          "internalType": "uint256",
          "name": "ticketId",
          "type": "uint256"
        },
        {
          "internalType": "uint256",
          "name": "concertId",
          "type": "uint256"
        },
        {
          "internalType": "address",
          "name": "owner",
          "type": "address"
        },
        {
          "internalType": "bool",
          "name": "isAvailable",
          "type": "bool"
        },
        {
          "internalType": "bool",
          "name": "isAvailableForSale",
          "type": "bool"
        },
        {
          "internalType": "bool",
          "name": "used",
          "type": "bool"
        }
      ],
      "stateMutability": "view",
      "type": "function",
      "constant": true
    },
    {
      "inputs": [],
      "name": "totalOfArtists",
      "outputs": [
        {
          "internalType": "uint256",
          "name": "",
          "type": "uint256"
        }
      ],
      "stateMutability": "view",
      "type": "function",
      "constant": true
    },
    {
      "inputs": [],
      "name": "totalOfConcerts",
      "outputs": [
        {
          "internalType": "uint256",
          "name": "",
          "type": "uint256"
        }
      ],
      "stateMutability": "view",
      "type": "function",
      "constant": true
    },
    {
      "inputs": [],
      "name": "totalOfVenues",
      "outputs": [
        {
          "internalType": "uint256",
          "name": "",
          "type": "uint256"
        }
      ],
      "stateMutability": "view",
      "type": "function",
      "constant": true
    },
    {
      "inputs": [],
      "name": "totalTicket",
      "outputs": [
        {
          "internalType": "uint256",
          "name": "",
          "type": "uint256"
        }
      ],
      "stateMutability": "view",
      "type": "function",
      "constant": true
    },
    {
      "inputs": [
        {
          "internalType": "uint256",
          "name": "",
          "type": "uint256"
        }
      ],
      "name": "venuesRegister",
      "outputs": [
        {
          "internalType": "uint256",
          "name": "id",
          "type": "uint256"
        },
        {
          "internalType": "bytes32",
          "name": "name",
          "type": "bytes32"
        },
        {
          "internalType": "uint256",
          "name": "capacity",
          "type": "uint256"
        },
        {
          "internalType": "uint256",
          "name": "commission",
          "type": "uint256"
        },
        {
          "internalType": "address",
          "name": "owner",
          "type": "address"
        }
      ],
      "stateMutability": "view",
      "type": "function",
      "constant": true
    },
    {
      "inputs": [
        {
          "internalType": "bytes32",
          "name": "_name",
          "type": "bytes32"
        },
        {
          "internalType": "uint256",
          "name": "_categroy",
          "type": "uint256"
        }
      ],
      "name": "createArtist",
      "outputs": [],
      "stateMutability": "nonpayable",
      "type": "function"
    },
    {
      "inputs": [
        {
          "internalType": "uint256",
          "name": "_id",
          "type": "uint256"
        },
        {
          "internalType": "bytes32",
          "name": "_name",
          "type": "bytes32"
        },
        {
          "internalType": "uint256",
          "name": "_categroy",
          "type": "uint256"
        },
        {
          "internalType": "address payable",
          "name": "_address",
          "type": "address"
        }
      ],
      "name": "modifyArtist",
      "outputs": [],
      "stateMutability": "nonpayable",
      "type": "function"
    },
    {
      "inputs": [
        {
          "internalType": "bytes32",
          "name": "_name",
          "type": "bytes32"
        },
        {
          "internalType": "uint256",
          "name": "_capacity",
          "type": "uint256"
        },
        {
          "internalType": "uint256",
          "name": "_standardComission",
          "type": "uint256"
        }
      ],
      "name": "createVenue",
      "outputs": [],
      "stateMutability": "nonpayable",
      "type": "function"
    },
    {
      "inputs": [
        {
          "internalType": "uint256",
          "name": "_venueId",
          "type": "uint256"
        },
        {
          "internalType": "bytes32",
          "name": "_name",
          "type": "bytes32"
        },
        {
          "internalType": "uint256",
          "name": "_capacity",
          "type": "uint256"
        },
        {
          "internalType": "uint256",
          "name": "_standardComission",
          "type": "uint256"
        },
        {
          "internalType": "address payable",
          "name": "_newOwner",
          "type": "address"
        }
      ],
      "name": "modifyVenue",
      "outputs": [],
      "stateMutability": "nonpayable",
      "type": "function"
    },
    {
      "inputs": [
        {
          "internalType": "uint256",
          "name": "_artistId",
          "type": "uint256"
        },
        {
          "internalType": "uint256",
          "name": "_venueId",
          "type": "uint256"
        },
        {
          "internalType": "uint256",
          "name": "_concertDate",
          "type": "uint256"
        },
        {
          "internalType": "uint256",
          "name": "_ticketPrice",
          "type": "uint256"
        }
      ],
      "name": "createConcert",
      "outputs": [],
      "stateMutability": "nonpayable",
      "type": "function"
    },
    {
      "inputs": [
        {
          "internalType": "uint256",
          "name": "_concertId",
          "type": "uint256"
        }
      ],
      "name": "validateConcertByArtist",
      "outputs": [],
      "stateMutability": "nonpayable",
      "type": "function"
    },
    {
      "inputs": [
        {
          "internalType": "uint256",
          "name": "_concertId",
          "type": "uint256"
        }
      ],
      "name": "validateConcert",
      "outputs": [],
      "stateMutability": "nonpayable",
      "type": "function"
    },
    {
      "inputs": [
        {
          "internalType": "uint256",
          "name": "_concertId",
          "type": "uint256"
        },
        {
          "internalType": "address payable",
          "name": "_ticketOwner",
          "type": "address"
        }
      ],
      "name": "emitTicket",
      "outputs": [],
      "stateMutability": "nonpayable",
      "type": "function"
    },
    {
      "inputs": [
        {
          "internalType": "uint256",
          "name": "_ticketId",
          "type": "uint256"
        }
      ],
      "name": "useTicket",
      "outputs": [],
      "stateMutability": "nonpayable",
      "type": "function"
    },
    {
      "inputs": [
        {
          "internalType": "uint256",
          "name": "_concertId",
          "type": "uint256"
        }
      ],
      "name": "buyTicket",
      "outputs": [],
      "stateMutability": "payable",
      "type": "function",
      "payable": true
    },
    {
      "inputs": [
        {
          "internalType": "uint256",
          "name": "_ticketId",
          "type": "uint256"
        },
        {
          "internalType": "address payable",
          "name": "_newOwner",
          "type": "address"
        }
      ],
      "name": "transferTicket",
      "outputs": [],
      "stateMutability": "nonpayable",
      "type": "function"
    }
  ],
  "bytecode": "0x60806040526000805560006002556000600555600060065534801561002357600080fd5b506122de806100336000396000f3fe6080604052600436106101145760003560e01c806388d65846116100a0578063a88ae81511610064578063a88ae81514610380578063b8a28336146103c1578063e03536f3146103ec578063e62e4f8d14610415578063f02eafd11461043e57610114565b806388d658461461029a5780638ee0feee146102c357806390b3b014146102ee57806392fc3b081461031757806397af29301461034057610114565b80635dfe9291116100e75780635dfe9291146101bf578063679ebf1a1461020157806367dd74ca1461022a57806368771d7514610246578063832946421461027157610114565b806308b2ce02146101195780632660644814610144578063486ff9ae1461016d57806359cb327a14610196575b600080fd5b34801561012557600080fd5b5061012e610483565b60405161013b9190611fee565b60405180910390f35b34801561015057600080fd5b5061016b60048036036101669190810190611925565b610489565b005b34801561017957600080fd5b50610194600480360361018f919081019061194e565b61068f565b005b3480156101a257600080fd5b506101bd60048036036101b891908101906118d6565b6108e9565b005b3480156101cb57600080fd5b506101e660048036036101e19190810190611925565b610a30565b6040516101f8969594939291906120ca565b60405180910390f35b34801561020d57600080fd5b506102286004803603610223919081019061194e565b610ab3565b005b610244600480360361023f9190810190611925565b610beb565b005b34801561025257600080fd5b5061025b610e1d565b6040516102689190611fee565b60405180910390f35b34801561027d57600080fd5b5061029860048036036102939190810190611925565b610e23565b005b3480156102a657600080fd5b506102c160048036036102bc91908101906119ed565b610f46565b005b3480156102cf57600080fd5b506102d86110d0565b6040516102e59190611fee565b60405180910390f35b3480156102fa57600080fd5b506103156004803603610310919081019061198a565b6110d6565b005b34801561032357600080fd5b5061033e60048036036103399190810190611925565b611244565b005b34801561034c57600080fd5b5061036760048036036103629190810190611925565b6113d1565b6040516103779493929190612032565b60405180910390f35b34801561038c57600080fd5b506103a760048036036103a29190810190611925565b611421565b6040516103b8959493929190612077565b60405180910390f35b3480156103cd57600080fd5b506103d6611477565b6040516103e39190611fee565b60405180910390f35b3480156103f857600080fd5b50610413600480360361040e9190810190611a64565b61147d565b005b34801561042157600080fd5b5061043c6004803603610437919081019061189a565b6115cf565b005b34801561044a57600080fd5b5061046560048036036104609190810190611925565b6116c8565b60405161047a9998979695949392919061212b565b60405180910390f35b60055481565b806007600082815260200190815260200160002060020160009054906101000a900473ffffffffffffffffffffffffffffffffffffffff1673ffffffffffffffffffffffffffffffffffffffff163373ffffffffffffffffffffffffffffffffffffffff161461052e576040517f08c379a000000000000000000000000000000000000000000000000000000000815260040161052590611f8e565b60405180910390fd5b81611c20420360046000600760008581526020019081526020016000206001015481526020019081526020016000206003015410156105a2576040517f08c379a000000000000000000000000000000000000000000000000000000000815260040161059990611ece565b60405180910390fd5b8260011515600460006007600085815260200190815260200160002060010154815260200190815260200160002060050160019054906101000a900460ff16151514610623576040517f08c379a000000000000000000000000000000000000000000000000000000000815260040161061a90611f2e565b60405180910390fd5b60016007600086815260200190815260200160002060020160166101000a81548160ff0219169083151502179055507f642b5f9b9ffd8c37a03b8059ad4e457d78385d2e9c3ec411c9bd699f7cc979ed846040516106819190611fee565b60405180910390a150505050565b60046000838152602001908152602001600020600101546001600082815260200190815260200160002060030160009054906101000a900473ffffffffffffffffffffffffffffffffffffffff1673ffffffffffffffffffffffffffffffffffffffff163373ffffffffffffffffffffffffffffffffffffffff161461074a576040517f08c379a000000000000000000000000000000000000000000000000000000000815260040161074190611fce565b60405180910390fd5b610752611730565b6006600081548092919060010191905055506006548160000181815250508381602001818152505082816040019073ffffffffffffffffffffffffffffffffffffffff16908173ffffffffffffffffffffffffffffffffffffffff16815250506001816060019015159081151581525050600181608001901515908115158152505080600760006006548152602001908152602001600020600082015181600001556020820151816001015560408201518160020160006101000a81548173ffffffffffffffffffffffffffffffffffffffff021916908373ffffffffffffffffffffffffffffffffffffffff16021790555060608201518160020160146101000a81548160ff02191690831515021790555060808201518160020160156101000a81548160ff02191690831515021790555060a08201518160020160166101000a81548160ff0219169083151502179055509050507f8d860a22a10362d00ec01f9cdee97d33340890d506acee3cdb2f62ba29b5c35c81600001516040516108db9190611fee565b60405180910390a150505050565b6108f1611782565b60026000815480929190600101919050555060025481600001818152505083816020018181525050828160400181815250508181606001818152505033816080019073ffffffffffffffffffffffffffffffffffffffff16908173ffffffffffffffffffffffffffffffffffffffff16815250508060036000836000015181526020019081526020016000206000820151816000015560208201518160010155604082015181600201556060820151816003015560808201518160040160006101000a81548173ffffffffffffffffffffffffffffffffffffffff021916908373ffffffffffffffffffffffffffffffffffffffff1602179055509050507f065eb9c9378139878c972d88e10412c1cda40b2757a66cae597cccec532a8ccc8160000151604051610a229190611fee565b60405180910390a150505050565b60076020528060005260406000206000915090508060000154908060010154908060020160009054906101000a900473ffffffffffffffffffffffffffffffffffffffff16908060020160149054906101000a900460ff16908060020160159054906101000a900460ff16908060020160169054906101000a900460ff16905086565b816007600082815260200190815260200160002060020160009054906101000a900473ffffffffffffffffffffffffffffffffffffffff1673ffffffffffffffffffffffffffffffffffffffff163373ffffffffffffffffffffffffffffffffffffffff1614610b58576040517f08c379a0000000000000000000000000000000000000000000000000000000008152600401610b4f90611f8e565b60405180910390fd5b816007600085815260200190815260200160002060020160006101000a81548173ffffffffffffffffffffffffffffffffffffffff021916908373ffffffffffffffffffffffffffffffffffffffff1602179055507f01eaf4bad1156a61620cefe4be24860dd458c5563a7f19549947dcc8a71fddca8383604051610bde929190612009565b60405180910390a1505050565b6004600082815260200190815260200160002060040154341015610c44576040517f08c379a0000000000000000000000000000000000000000000000000000000008152600401610c3b90611f4e565b60405180910390fd5b600080905060008090505b6000600760008481526020019081526020016000206000015414610dd3578260076000848152602001908152602001600020600101541415610dc657600115156007600084815260200190815260200160002060020160149054906101000a900460ff1615151415610dc557336007600084815260200190815260200160002060020160006101000a81548173ffffffffffffffffffffffffffffffffffffffff021916908373ffffffffffffffffffffffffffffffffffffffff16021790555060006007600084815260200190815260200160002060020160156101000a81548160ff0219169083151502179055506001905060046000848152602001908152602001600020600601600081548092919060010191905055503460046000858152602001908152602001600020600701600082825401925050819055507ff16d6eda5c465ff67f9d8214bbdf4a6453ad9f97128c07902113c67ccbaef1b183604051610dbc9190611fee565b60405180910390a15b5b8180600101925050610c4f565b600015158115151415610e18577f51d0bdffa6512a667aade1c8d733620a6e32b0e65a34cc5991abaa35ba597b6b83604051610e0f9190611fee565b60405180910390a15b505050565b60025481565b600160006004600084815260200190815260200160002060010154815260200190815260200160002060030160009054906101000a900473ffffffffffffffffffffffffffffffffffffffff1673ffffffffffffffffffffffffffffffffffffffff163373ffffffffffffffffffffffffffffffffffffffff1614610edd576040517f08c379a0000000000000000000000000000000000000000000000000000000008152600401610ed490611fae565b60405180910390fd5b60016004600083815260200190815260200160002060050160006101000a81548160ff0219169083151502179055507f85e3bbcf2deebf3a4a0bf056a3c8b70cfb4a594dc84a6637624aca351d9bcdbd81604051610f3b9190611fee565b60405180910390a150565b846003600082815260200190815260200160002060040160009054906101000a900473ffffffffffffffffffffffffffffffffffffffff1673ffffffffffffffffffffffffffffffffffffffff163373ffffffffffffffffffffffffffffffffffffffff1614610feb576040517f08c379a0000000000000000000000000000000000000000000000000000000008152600401610fe290611f6e565b60405180910390fd5b846003600088815260200190815260200160002060010181905550836003600088815260200190815260200160002060020181905550826003600088815260200190815260200160002060030181905550816003600088815260200190815260200160002060040160006101000a81548173ffffffffffffffffffffffffffffffffffffffff021916908373ffffffffffffffffffffffffffffffffffffffff1602179055507f0c291a9862bb547b7403ca72a6183d374a11f6a0c06d00ed9b31466ecb8f6e87866040516110c09190611fee565b60405180910390a1505050505050565b60005481565b836001600082815260200190815260200160002060030160009054906101000a900473ffffffffffffffffffffffffffffffffffffffff1673ffffffffffffffffffffffffffffffffffffffff163373ffffffffffffffffffffffffffffffffffffffff161461117b576040517f08c379a000000000000000000000000000000000000000000000000000000000815260040161117290611fce565b60405180910390fd5b836001600087815260200190815260200160002060010181905550826001600087815260200190815260200160002060020181905550816001600087815260200190815260200160002060030160006101000a81548173ffffffffffffffffffffffffffffffffffffffff021916908373ffffffffffffffffffffffffffffffffffffffff1602179055507f3576f4b8baa73b0a0db33288241f829166d3b67ac545606415f99dd82e43b722856040516112359190611fee565b60405180910390a15050505050565b600115156004600083815260200190815260200160002060050160009054906101000a900460ff161515146112ae576040517f08c379a00000000000000000000000000000000000000000000000000000000081526004016112a590611eee565b60405180910390fd5b3373ffffffffffffffffffffffffffffffffffffffff16600360006004600085815260200190815260200160002060020154815260200190815260200160002060040160009054906101000a900473ffffffffffffffffffffffffffffffffffffffff1673ffffffffffffffffffffffffffffffffffffffff1614611368576040517f08c379a000000000000000000000000000000000000000000000000000000000815260040161135f90611f0e565b60405180910390fd5b60016004600083815260200190815260200160002060050160016101000a81548160ff0219169083151502179055507fe95365005ab84ee26b2d27237f3b2811fe85e420b279fff9d98016edf8ae2975816040516113c69190611fee565b60405180910390a150565b60016020528060005260406000206000915090508060000154908060010154908060020154908060030160009054906101000a900473ffffffffffffffffffffffffffffffffffffffff16905084565b60036020528060005260406000206000915090508060000154908060010154908060020154908060030154908060040160009054906101000a900473ffffffffffffffffffffffffffffffffffffffff16905085565b60065481565b6005600081548092919060010191905055506114976117ca565b6005548160000181815250508481602001818152505083816040018181525050828160600181815250508181608001818152505060008160a001901515908115158152505060008160c0019015159081151581525050806004600083600001518152602001908152602001600020600082015181600001556020820151816001015560408201518160020155606082015181600301556080820151816004015560a08201518160050160006101000a81548160ff02191690831515021790555060c08201518160050160016101000a81548160ff02191690831515021790555060e0820151816006015561010082015181600701559050507f040ada5a276eaec33bc1c73b63cfafeabe9f768c733988250055c6a9d24f7bbf6005546040516115c09190611fee565b60405180910390a15050505050565b6115d761181a565b6000808154809291906001019190505550600054816000018181525050828160200181815250508181604001818152505080600160008360000151815260200190815260200160002060008201518160000155602082015181600101556040820151816002015560608201518160030160006101000a81548173ffffffffffffffffffffffffffffffffffffffff021916908373ffffffffffffffffffffffffffffffffffffffff1602179055509050507fe7901ea5acc0253403d308920e2101ea433e7d35ff5dabbbe9d64173edae77db81600001516040516116bb9190611fee565b60405180910390a1505050565b60046020528060005260406000206000915090508060000154908060010154908060020154908060030154908060040154908060050160009054906101000a900460ff16908060050160019054906101000a900460ff16908060060154908060070154905089565b6040518060c001604052806000815260200160008152602001600073ffffffffffffffffffffffffffffffffffffffff1681526020016000151581526020016000151581526020016000151581525090565b6040518060a0016040528060008152602001600080191681526020016000815260200160008152602001600073ffffffffffffffffffffffffffffffffffffffff1681525090565b604051806101200160405280600081526020016000815260200160008152602001600081526020016000815260200160001515815260200160001515815260200160008152602001600081525090565b6040518060800160405280600081526020016000801916815260200160008152602001600073ffffffffffffffffffffffffffffffffffffffff1681525090565b60008135905061186a81612263565b92915050565b60008135905061187f8161227a565b92915050565b60008135905061189481612291565b92915050565b600080604083850312156118ad57600080fd5b60006118bb85828601611870565b92505060206118cc85828601611885565b9150509250929050565b6000806000606084860312156118eb57600080fd5b60006118f986828701611870565b935050602061190a86828701611885565b925050604061191b86828701611885565b9150509250925092565b60006020828403121561193757600080fd5b600061194584828501611885565b91505092915050565b6000806040838503121561196157600080fd5b600061196f85828601611885565b92505060206119808582860161185b565b9150509250929050565b600080600080608085870312156119a057600080fd5b60006119ae87828801611885565b94505060206119bf87828801611870565b93505060406119d087828801611885565b92505060606119e18782880161185b565b91505092959194509250565b600080600080600060a08688031215611a0557600080fd5b6000611a1388828901611885565b9550506020611a2488828901611870565b9450506040611a3588828901611885565b9350506060611a4688828901611885565b9250506080611a578882890161185b565b9150509295509295909350565b60008060008060808587031215611a7a57600080fd5b6000611a8887828801611885565b9450506020611a9987828801611885565b9350506040611aaa87828801611885565b9250506060611abb87828801611885565b91505092959194509250565b611ad08161222d565b82525050565b611adf816121c9565b82525050565b611aee816121ed565b82525050565b611afd816121f9565b82525050565b6000611b106038836121b8565b91507f4572726f722c20796f752063616e27742075736520746865207469636b65742060008301527f6265666f72652074686520636f6e6365727420646174652e00000000000000006020830152604082019050919050565b6000611b76602b836121b8565b91507f4572726f722c20636f6e63657274206e6f742076616c6964617465642062792060008301527f746865206172746973742e0000000000000000000000000000000000000000006020830152604082019050919050565b6000611bdc6038836121b8565b91507f4572726f722c20746865206d73672e73656e646572206973206e6f74206d617460008301527f6368696e672077697468207468652076656e75652069642e00000000000000006020830152604082019050919050565b6000611c42602c836121b8565b91507f4572726f722c207468652076656e7565206173206e6f742076616c696461746560008301527f6420746865206576656e742e00000000000000000000000000000000000000006020830152604082019050919050565b6000611ca8604a836121b8565b91507f4572726f722c207468652070726963652073656e74206973206e6f7420656e6f60008301527f7567682e20506c6561736520636865636b2074686520636f6e6365727420707260208301527f6963652061736b65642e000000000000000000000000000000000000000000006040830152606082019050919050565b6000611d346023836121b8565b91507f596f7520617265206e6f7420746865206f776e6572206f66207468652076656e60008301527f75652e00000000000000000000000000000000000000000000000000000000006020830152604082019050919050565b6000611d9a602b836121b8565b91507f4572726f722c20796f7520617265206e6f7420746865206f776e6572206f662060008301527f746865207469636b65742e0000000000000000000000000000000000000000006020830152604082019050919050565b6000611e00603c836121b8565b91507f4572726f722c20746865206d73672e73656e646572206973206e6f74206d617460008301527f6368696e6720776974682074686520617274697374206f776e65722e000000006020830152604082019050919050565b6000611e666023836121b8565b91507f596f7520617265206e6f7420746865206f776e6572206f66207468652061727460008301527f69737400000000000000000000000000000000000000000000000000000000006020830152604082019050919050565b611ec881612223565b82525050565b60006020820190508181036000830152611ee781611b03565b9050919050565b60006020820190508181036000830152611f0781611b69565b9050919050565b60006020820190508181036000830152611f2781611bcf565b9050919050565b60006020820190508181036000830152611f4781611c35565b9050919050565b60006020820190508181036000830152611f6781611c9b565b9050919050565b60006020820190508181036000830152611f8781611d27565b9050919050565b60006020820190508181036000830152611fa781611d8d565b9050919050565b60006020820190508181036000830152611fc781611df3565b9050919050565b60006020820190508181036000830152611fe781611e59565b9050919050565b60006020820190506120036000830184611ebf565b92915050565b600060408201905061201e6000830185611ebf565b61202b6020830184611ac7565b9392505050565b60006080820190506120476000830187611ebf565b6120546020830186611af4565b6120616040830185611ebf565b61206e6060830184611ad6565b95945050505050565b600060a08201905061208c6000830188611ebf565b6120996020830187611af4565b6120a66040830186611ebf565b6120b36060830185611ebf565b6120c06080830184611ad6565b9695505050505050565b600060c0820190506120df6000830189611ebf565b6120ec6020830188611ebf565b6120f96040830187611ad6565b6121066060830186611ae5565b6121136080830185611ae5565b61212060a0830184611ae5565b979650505050505050565b600061012082019050612141600083018c611ebf565b61214e602083018b611ebf565b61215b604083018a611ebf565b6121686060830189611ebf565b6121756080830188611ebf565b61218260a0830187611ae5565b61218f60c0830186611ae5565b61219c60e0830185611ebf565b6121aa610100830184611ebf565b9a9950505050505050505050565b600082825260208201905092915050565b60006121d482612203565b9050919050565b60006121e682612203565b9050919050565b60008115159050919050565b6000819050919050565b600073ffffffffffffffffffffffffffffffffffffffff82169050919050565b6000819050919050565b60006122388261223f565b9050919050565b600061224a82612251565b9050919050565b600061225c82612203565b9050919050565b61226c816121db565b811461227757600080fd5b50565b612283816121f9565b811461228e57600080fd5b50565b61229a81612223565b81146122a557600080fd5b5056fea2646970667358221220fdc0969c33c8779bb526f3b6a284f20464946b40f12f1925b961b0940dc967f964736f6c63430006000033",
  "source": "pragma solidity ^0.6.0;\r\npragma experimental ABIEncoderV2;\r\n\r\ncontract ticketingSystem {\r\n\r\n    uint public totalOfArtists = 0;\r\n\r\n    struct artist {\r\n        uint id;\r\n        bytes32 name;\r\n        uint category;\r\n        address owner;\r\n    }\r\n    mapping( uint => artist ) public artistsRegister;\r\n\r\n    event newArtistCreated(uint);\r\n\r\n    function createArtist(bytes32 _name, uint _categroy) public {\r\n        artist memory newArtist;\r\n        totalOfArtists++;\r\n        newArtist.id = totalOfArtists;\r\n        newArtist.name = _name;\r\n        newArtist.category = _categroy;\r\n        artistsRegister[newArtist.id] = newArtist;\r\n        emit newArtistCreated(newArtist.id);\r\n    }\r\n\r\n    // event artistRegistered(uint);\r\n\r\n    // function artistsRegister(uint id) public returns (artist memory) {\r\n    //     emit artistRegistered(id);\r\n    //     return artistList[id];\r\n    // }\r\n\r\n    modifier onlyArtistOwner(uint _id){\r\n        require(msg.sender == artistsRegister[_id].owner, \"You are not the owner of the artist\");\r\n        _;\r\n    }\r\n    event artistModified(uint);\r\n\r\n    function modifyArtist(uint _id, bytes32 _name, uint _categroy, address payable _address) public onlyArtistOwner(_id) {\r\n        artistsRegister[_id].name = _name;\r\n        artistsRegister[_id].category = _categroy;\r\n        artistsRegister[_id].owner = _address;\r\n        emit artistModified(_id);\r\n    }\r\n\r\n    struct venue{\r\n        uint id;\r\n        bytes32 name;\r\n        uint capacity;\r\n        uint commission;\r\n        address owner;\r\n    }\r\n\r\n    uint public totalOfVenues = 0;\r\n\r\n    mapping( uint => venue ) public venuesRegister;\r\n    event venueCreated(uint);\r\n\r\n    function createVenue(bytes32 _name, uint _capacity, uint _standardComission) public {\r\n        venue memory newVenue;\r\n        totalOfVenues++;\r\n        newVenue.id = totalOfVenues;\r\n        newVenue.name = _name;\r\n        newVenue.capacity = _capacity;\r\n        newVenue.commission = _standardComission;\r\n        newVenue.owner = msg.sender;\r\n        venuesRegister[newVenue.id] = newVenue;\r\n        emit venueCreated(newVenue.id);\r\n    }\r\n\r\n    modifier onlyVenueOwner(uint _id){\r\n        require(msg.sender == venuesRegister[_id].owner, \"You are not the owner of the venue.\");\r\n        _;\r\n    }\r\n\r\n    event venueModified(uint);\r\n\r\n    function modifyVenue(uint _venueId, bytes32 _name, uint _capacity, uint _standardComission, address payable _newOwner)\r\n        public onlyVenueOwner(_venueId){\r\n        venuesRegister[_venueId].name = _name;\r\n        venuesRegister[_venueId].capacity = _capacity;\r\n        venuesRegister[_venueId].commission = _standardComission;\r\n        venuesRegister[_venueId].owner = _newOwner;\r\n        emit venueModified(_venueId);\r\n    }\r\n\r\n    struct concert{\r\n        uint concertId;\r\n        uint artistId;\r\n        uint venueId;\r\n        uint concertDate;\r\n        uint ticketPrice;\r\n        bool validatedByArtist;\r\n        bool validatedByVenue;\r\n        uint totalSoldTicket;\r\n        uint totalMoneyCollected;\r\n    }\r\n    mapping( uint => concert ) public concertsRegister;\r\n    uint public totalOfConcerts = 0;\r\n\r\n    event concertCreated(uint);\r\n\r\n    function createConcert(uint _artistId, uint _venueId, uint _concertDate, uint _ticketPrice) public {\r\n        totalOfConcerts++;\r\n        concert memory newConcert;\r\n        newConcert.concertId = totalOfConcerts;\r\n        newConcert.artistId = _artistId;\r\n        newConcert.venueId = _venueId;\r\n        newConcert.concertDate = _concertDate;\r\n        newConcert.ticketPrice = _ticketPrice;\r\n        newConcert.validatedByArtist = false;\r\n        newConcert.validatedByVenue = false;\r\n        concertsRegister[newConcert.concertId] = newConcert;\r\n        emit concertCreated(totalOfConcerts);\r\n    }\r\n\r\n    event concertValidatedByArtist(uint);\r\n    event concertValidatedByVenue(uint);\r\n\r\n    function validateConcertByArtist(uint _concertId) public{\r\n        require(msg.sender == artistsRegister[concertsRegister[_concertId].artistId].owner,\r\n        \"Error, the msg.sender is not matching with the artist owner.\");\r\n        concertsRegister[_concertId].validatedByArtist = true;\r\n        emit concertValidatedByArtist(_concertId);\r\n    }\r\n\r\n    function validateConcert(uint _concertId) public {\r\n        require(concertsRegister[_concertId].validatedByArtist == true,\"Error, concert not validated by the artist.\");\r\n        require(venuesRegister[concertsRegister[_concertId].venueId].owner == msg.sender,\r\n            \"Error, the msg.sender is not matching with the venue id.\");\r\n        concertsRegister[_concertId].validatedByVenue = true;\r\n        emit concertValidatedByVenue(_concertId);\r\n    }\r\n\r\n    struct ticket{\r\n        uint ticketId; //don't initialize concertId = 0 !\r\n        uint concertId;\r\n        address owner;\r\n        bool isAvailable;\r\n        bool isAvailableForSale;\r\n        bool used;\r\n    }\r\n    uint public totalTicket = 0;\r\n    mapping( uint => ticket ) public ticketsRegister;\r\n\r\n    event newTicketEmitted(uint);\r\n\r\n    function emitTicket(uint _concertId, address payable _ticketOwner) public onlyArtistOwner(concertsRegister[_concertId].artistId) {\r\n        ticket memory newTicket;\r\n        totalTicket++;\r\n        newTicket.ticketId = totalTicket;\r\n        newTicket.concertId = _concertId;\r\n        newTicket.owner = _ticketOwner;\r\n        newTicket.isAvailable = true;\r\n        newTicket.isAvailableForSale = true;\r\n        ticketsRegister[totalTicket] = newTicket;\r\n        emit newTicketEmitted(newTicket.ticketId);\r\n    }\r\n\r\n    modifier onlyTicketOwner(uint _ticketId){\r\n        require(msg.sender == ticketsRegister[_ticketId].owner,\"Error, you are not the owner of the ticket.\");\r\n        _;\r\n    }\r\n\r\n    //let say that we can use a ticket only 2 hours before the concert datetime\r\n    modifier onlyTheDayOf(uint _ticketId){\r\n        require(concertsRegister[ticketsRegister[_ticketId].concertId].concertDate >= now - 2 *1 hours,\r\n        \"Error, you can't use the ticket before the concert date.\");\r\n        _;\r\n    }\r\n\r\n    modifier onlyIfValidatedByVenue(uint _ticketId){\r\n        require(concertsRegister[ticketsRegister[_ticketId].concertId].validatedByVenue == true, \"Error, the venue as not validated the event.\");\r\n        _;\r\n    }\r\n\r\n    event ticketUsed(uint);\r\n\r\n    function useTicket(uint _ticketId) public\r\n        onlyTicketOwner(_ticketId)\r\n        onlyTheDayOf(_ticketId)\r\n        onlyIfValidatedByVenue(_ticketId){\r\n            ticketsRegister[_ticketId].used = true;\r\n            emit ticketUsed(_ticketId);\r\n    }\r\n\r\n    event buyTicketSucceed(uint);\r\n    event buyTicketFailed(uint);\r\n\r\n    function buyTicket(uint _concertId) public payable{\r\n        require(msg.value >= concertsRegister[_concertId].ticketPrice,\r\n        \"Error, the price sent is not enough. Please check the concert price asked.\");\r\n        uint k = 0;\r\n        bool succeed = false;\r\n        while( ticketsRegister[k].ticketId != 0 ){\r\n            if (ticketsRegister[k].concertId == _concertId){\r\n                if( ticketsRegister[k].isAvailable == true ){\r\n                    ticketsRegister[k].owner = msg.sender;\r\n                    ticketsRegister[k].isAvailableForSale = false;\r\n                    succeed = true;\r\n                    concertsRegister[_concertId].totalSoldTicket++;\r\n                    concertsRegister[_concertId].totalMoneyCollected += msg.value;\r\n                    emit buyTicketSucceed(_concertId);\r\n                }\r\n            }\r\n            k++;\r\n        }\r\n        if (succeed == false){\r\n            emit buyTicketFailed(_concertId);\r\n        }\r\n    }\r\n\r\n    event ticketTransfered(uint,address);\r\n\r\n    function transferTicket(uint _ticketId, address payable _newOwner) public onlyTicketOwner(_ticketId){\r\n        ticketsRegister[_ticketId].owner = _newOwner;\r\n        emit ticketTransfered(_ticketId,_newOwner);\r\n    }\r\n\r\n    // event concertCashOut(uint);\r\n\r\n    // function cashOutConcert(uint _concertId, address payable _cashOutAddress) public {\r\n    //     require(venuesRegister[concertsRegister[_concertId].venueId].owner == msg.sender,\r\n    //     \"Error, only venue's owner ca cash out.\");\r\n    //     //computation\r\n    //     uint totalTicketSale = concertsRegister[_concertId].ticketPrice * concertsRegister[_concertId].totalSoldTicket;\r\n    //     uint venueShare = totalTicketSale * venuesRegister[concertsRegister[_concertId].venueId].commission / 10000;\r\n    //     uint artistShare = totalTicketSale - venueShare;\r\n    //     //modify the state\r\n    //     // venuesRegister[concertsRegister[_concertId].venueId].owner.balance() += venueShare;\r\n    //     // artistsRegister[concertsRegister[_concertId].artistId].owner.balance() += artistShare;\r\n    //     // msg.sender.transfer(venuesRegister[concertsRegister[_concertId].venueId].owner, venueShare);\r\n\r\n\r\n    //     emit concertCashOut(_concertId);\r\n    // }\r\n\r\n}",
  "sourcePath": "C:\\Users\\marti\\Desktop\\ESILV\\FinTech_S9\\Blockchain_Programming\\TD8_truffle-testing\\contracts\\ticketingSystem.sol",
  "compiler": {
    "name": "solc",
    "version": "0.6.0+commit.26b70077.Emscripten.clang"
  },
  "schemaVersion": "3.0.23",
  "updatedAt": "2020-03-22T16:20:26.593Z",
  "networkType": "ethereum",
  "devdoc": {
    "methods": {}
  },
  "userdoc": {
    "methods": {}
  }
}